{
  "_format": "hh-sol-artifact-1",
  "contractName": "CarFactory",
  "sourceName": "src/backend/contracts/CreatingContracts.sol",
  "abi": [
    {
      "inputs": [
        {
          "internalType": "uint256",
          "name": "",
          "type": "uint256"
        }
      ],
      "name": "cars",
      "outputs": [
        {
          "internalType": "contract Car",
          "name": "",
          "type": "address"
        }
      ],
      "stateMutability": "view",
      "type": "function"
    },
    {
      "inputs": [
        {
          "internalType": "string",
          "name": "_model",
          "type": "string"
        }
      ],
      "name": "create",
      "outputs": [],
      "stateMutability": "nonpayable",
      "type": "function"
    },
    {
      "inputs": [
        {
          "internalType": "string",
          "name": "_model",
          "type": "string"
        },
        {
          "internalType": "address",
          "name": "_owner",
          "type": "address"
        }
      ],
      "name": "createAndSendEther",
      "outputs": [],
      "stateMutability": "payable",
      "type": "function"
    }
  ],
  "bytecode": "0x608060405234801561001057600080fd5b50610d12806100206000396000f3fe608060405260043610620000385760003560e01c806348cf1cac146200003d578063b6a46b3b146200005d578063f7746e36146200008b575b600080fd5b6200005b600480360381019062000055919062000351565b620000cf565b005b3480156200006a57600080fd5b506200008960048036038101906200008391906200030c565b62000178565b005b3480156200009857600080fd5b50620000b76004803603810190620000b19190620003ab565b6200021e565b604051620000c691906200043a565b60405180910390f35b6000348383604051620000e2906200025e565b620000ef92919062000457565b6040518091039082f09050801580156200010d573d6000803e3d6000fd5b5090506000819080600181540180825580915050600190039060005260206000200160009091909190916101000a81548173ffffffffffffffffffffffffffffffffffffffff021916908373ffffffffffffffffffffffffffffffffffffffff160217905550505050565b600081306040516200018a906200025e565b6200019792919062000457565b604051809103906000f080158015620001b4573d6000803e3d6000fd5b5090506000819080600181540180825580915050600190039060005260206000200160009091909190916101000a81548173ffffffffffffffffffffffffffffffffffffffff021916908373ffffffffffffffffffffffffffffffffffffffff1602179055505050565b600081815481106200022f57600080fd5b906000526020600020016000915054906101000a900473ffffffffffffffffffffffffffffffffffffffff1681565b610681806200065c83390190565b6000620002836200027d84620004b4565b6200048b565b9050828152602081018484840111156200029c57600080fd5b620002a98482856200056c565b509392505050565b600081359050620002c28162000627565b92915050565b600082601f830112620002da57600080fd5b8135620002ec8482602086016200026c565b91505092915050565b600081359050620003068162000641565b92915050565b6000602082840312156200031f57600080fd5b600082013567ffffffffffffffff8111156200033a57600080fd5b6200034884828501620002c8565b91505092915050565b600080604083850312156200036557600080fd5b600083013567ffffffffffffffff8111156200038057600080fd5b6200038e85828601620002c8565b9250506020620003a185828601620002b1565b9150509250929050565b600060208284031215620003be57600080fd5b6000620003ce84828501620002f5565b91505092915050565b620003e28162000506565b82525050565b620003f38162000544565b82525050565b60006200040682620004ea565b620004128185620004f5565b9350620004248185602086016200057b565b6200042f8162000616565b840191505092915050565b6000602082019050620004516000830184620003e8565b92915050565b60006040820190508181036000830152620004738185620003f9565b9050620004846020830184620003d7565b9392505050565b600062000497620004aa565b9050620004a58282620005b1565b919050565b6000604051905090565b600067ffffffffffffffff821115620004d257620004d1620005e7565b5b620004dd8262000616565b9050602081019050919050565b600081519050919050565b600082825260208201905092915050565b600062000513826200051a565b9050919050565b600073ffffffffffffffffffffffffffffffffffffffff82169050919050565b6000819050919050565b6000620005518262000558565b9050919050565b600062000565826200051a565b9050919050565b82818337600083830152505050565b60005b838110156200059b5780820151818401526020810190506200057e565b83811115620005ab576000848401525b50505050565b620005bc8262000616565b810181811067ffffffffffffffff82111715620005de57620005dd620005e7565b5b80604052505050565b7f4e487b7100000000000000000000000000000000000000000000000000000000600052604160045260246000fd5b6000601f19601f8301169050919050565b620006328162000506565b81146200063e57600080fd5b50565b6200064c816200053a565b81146200065857600080fd5b5056fe6080604052604051610681380380610681833981810160405281019061002591906101a3565b806000806101000a81548173ffffffffffffffffffffffffffffffffffffffff021916908373ffffffffffffffffffffffffffffffffffffffff160217905550816001908051906020019061007b929190610083565b50505061039b565b82805461008f906102b2565b90600052602060002090601f0160209004810192826100b157600085556100f8565b82601f106100ca57805160ff19168380011785556100f8565b828001600101855582156100f8579182015b828111156100f75782518255916020019190600101906100dc565b5b5090506101059190610109565b5090565b5b8082111561012257600081600090555060010161010a565b5090565b60006101396101348461021c565b6101f7565b90508281526020810184848401111561015157600080fd5b61015c84828561027f565b509392505050565b60008151905061017381610384565b92915050565b600082601f83011261018a57600080fd5b815161019a848260208601610126565b91505092915050565b600080604083850312156101b657600080fd5b600083015167ffffffffffffffff8111156101d057600080fd5b6101dc85828601610179565b92505060206101ed85828601610164565b9150509250929050565b6000610201610212565b905061020d82826102e4565b919050565b6000604051905090565b600067ffffffffffffffff82111561023757610236610344565b5b61024082610373565b9050602081019050919050565b60006102588261025f565b9050919050565b600073ffffffffffffffffffffffffffffffffffffffff82169050919050565b60005b8381101561029d578082015181840152602081019050610282565b838111156102ac576000848401525b50505050565b600060028204905060018216806102ca57607f821691505b602082108114156102de576102dd610315565b5b50919050565b6102ed82610373565b810181811067ffffffffffffffff8211171561030c5761030b610344565b5b80604052505050565b7f4e487b7100000000000000000000000000000000000000000000000000000000600052602260045260246000fd5b7f4e487b7100000000000000000000000000000000000000000000000000000000600052604160045260246000fd5b6000601f19601f8301169050919050565b61038d8161024d565b811461039857600080fd5b50565b6102d7806103aa6000396000f3fe608060405234801561001057600080fd5b50600436106100365760003560e01c80630ad9d0521461003b5780638da5cb5b14610059575b600080fd5b610043610077565b604051610050919061018c565b60405180910390f35b610061610105565b60405161006e9190610171565b60405180910390f35b600180546100849061022f565b80601f01602080910402602001604051908101604052809291908181526020018280546100b09061022f565b80156100fd5780601f106100d2576101008083540402835291602001916100fd565b820191906000526020600020905b8154815290600101906020018083116100e057829003601f168201915b505050505081565b60008054906101000a900473ffffffffffffffffffffffffffffffffffffffff1681565b610132816101ca565b82525050565b6000610143826101ae565b61014d81856101b9565b935061015d8185602086016101fc565b61016681610290565b840191505092915050565b60006020820190506101866000830184610129565b92915050565b600060208201905081810360008301526101a68184610138565b905092915050565b600081519050919050565b600082825260208201905092915050565b60006101d5826101dc565b9050919050565b600073ffffffffffffffffffffffffffffffffffffffff82169050919050565b60005b8381101561021a5780820151818401526020810190506101ff565b83811115610229576000848401525b50505050565b6000600282049050600182168061024757607f821691505b6020821081141561025b5761025a610261565b5b50919050565b7f4e487b7100000000000000000000000000000000000000000000000000000000600052602260045260246000fd5b6000601f19601f830116905091905056fea2646970667358221220f15a0e0c596607d5baf0bcd5d574e6c57662f4514f092219095c823bf4f8b3bd64736f6c63430008040033a2646970667358221220d60a23d6486601948e9f92d571fd4975118d9132a4a6dc460875b02d1e2704f964736f6c63430008040033",
  "linkReferences": {},
  "deployedLinkReferences": {}
}