{
  "_format": "hh-sol-artifact-1",
  "contractName": "Marketplace",
  "sourceName": "src/backend/contracts/Marketplace.sol",
  "abi": [
    {
      "inputs": [
        {
          "internalType": "uint256",
          "name": "_feePercent",
          "type": "uint256"
        }
      ],
      "stateMutability": "nonpayable",
      "type": "constructor"
    },
    {
      "anonymous": false,
      "inputs": [
        {
          "indexed": false,
          "internalType": "uint256",
          "name": "itemId",
          "type": "uint256"
        },
        {
          "indexed": true,
          "internalType": "address",
          "name": "nft",
          "type": "address"
        },
        {
          "indexed": false,
          "internalType": "uint256",
          "name": "tokenId",
          "type": "uint256"
        },
        {
          "indexed": false,
          "internalType": "uint256",
          "name": "price",
          "type": "uint256"
        },
        {
          "indexed": true,
          "internalType": "address",
          "name": "seller",
          "type": "address"
        },
        {
          "indexed": true,
          "internalType": "address",
          "name": "buyer",
          "type": "address"
        }
      ],
      "name": "Bought",
      "type": "event"
    },
    {
      "anonymous": false,
      "inputs": [
        {
          "indexed": false,
          "internalType": "uint256",
          "name": "itemId",
          "type": "uint256"
        },
        {
          "indexed": true,
          "internalType": "address",
          "name": "nft",
          "type": "address"
        },
        {
          "indexed": false,
          "internalType": "uint256",
          "name": "tokenId",
          "type": "uint256"
        },
        {
          "indexed": false,
          "internalType": "uint256",
          "name": "price",
          "type": "uint256"
        },
        {
          "indexed": true,
          "internalType": "address",
          "name": "seller",
          "type": "address"
        }
      ],
      "name": "Offered",
      "type": "event"
    },
    {
      "inputs": [],
      "name": "feeAccount",
      "outputs": [
        {
          "internalType": "address payable",
          "name": "",
          "type": "address"
        }
      ],
      "stateMutability": "view",
      "type": "function"
    },
    {
      "inputs": [],
      "name": "feePercent",
      "outputs": [
        {
          "internalType": "uint256",
          "name": "",
          "type": "uint256"
        }
      ],
      "stateMutability": "view",
      "type": "function"
    },
    {
      "inputs": [
        {
          "internalType": "uint256",
          "name": "_itemId",
          "type": "uint256"
        }
      ],
      "name": "getItemPrice",
      "outputs": [
        {
          "internalType": "uint256",
          "name": "",
          "type": "uint256"
        }
      ],
      "stateMutability": "view",
      "type": "function"
    },
    {
      "inputs": [],
      "name": "itemCount",
      "outputs": [
        {
          "internalType": "uint256",
          "name": "",
          "type": "uint256"
        }
      ],
      "stateMutability": "view",
      "type": "function"
    },
    {
      "inputs": [
        {
          "internalType": "uint256",
          "name": "",
          "type": "uint256"
        }
      ],
      "name": "items",
      "outputs": [
        {
          "internalType": "uint256",
          "name": "itemId",
          "type": "uint256"
        },
        {
          "internalType": "contract IERC721",
          "name": "nft",
          "type": "address"
        },
        {
          "internalType": "uint256",
          "name": "tokenId",
          "type": "uint256"
        },
        {
          "internalType": "uint256",
          "name": "price",
          "type": "uint256"
        },
        {
          "internalType": "address payable",
          "name": "seller",
          "type": "address"
        },
        {
          "internalType": "bool",
          "name": "sold",
          "type": "bool"
        }
      ],
      "stateMutability": "view",
      "type": "function"
    },
    {
      "inputs": [
        {
          "internalType": "contract IERC721",
          "name": "_nft",
          "type": "address"
        },
        {
          "internalType": "uint256",
          "name": "_tokenId",
          "type": "uint256"
        },
        {
          "internalType": "uint256",
          "name": "_price",
          "type": "uint256"
        }
      ],
      "name": "makeItem",
      "outputs": [],
      "stateMutability": "nonpayable",
      "type": "function"
    },
    {
      "inputs": [
        {
          "internalType": "uint256",
          "name": "_itemId",
          "type": "uint256"
        }
      ],
      "name": "purchaseItem",
      "outputs": [],
      "stateMutability": "payable",
      "type": "function"
    }
  ],
  "bytecode": "0x60c060405234801561001057600080fd5b5060405161122638038061122683398181016040528101906100329190610094565b60016000819055508060a081815250503373ffffffffffffffffffffffffffffffffffffffff1660808173ffffffffffffffffffffffffffffffffffffffff1660601b81525050506100de565b60008151905061008e816100c7565b92915050565b6000602082840312156100a657600080fd5b60006100b48482850161007f565b91505092915050565b6000819050919050565b6100d0816100bd565b81146100db57600080fd5b50565b60805160601c60a051611112610114600039600081816101c0015261024901526000818161021f015261050001526111126000f3fe6080604052600436106100705760003560e01c80637fd6f15c1161004e5780637fd6f15c14610108578063bfb231d214610133578063d38ea5bf14610175578063fa00afc71461019157610070565b80634c4df8701461007557806365e17c9d146100b25780636bfb0d01146100dd575b600080fd5b34801561008157600080fd5b5061009c60048036038101906100979190610a50565b6101ba565b6040516100a99190610ca8565b60405180910390f35b3480156100be57600080fd5b506100c761021d565b6040516100d49190610b96565b60405180910390f35b3480156100e957600080fd5b506100f2610241565b6040516100ff9190610ca8565b60405180910390f35b34801561011457600080fd5b5061011d610247565b60405161012a9190610ca8565b60405180910390f35b34801561013f57600080fd5b5061015a60048036038101906101559190610a50565b61026b565b60405161016c96959493929190610cc3565b60405180910390f35b61018f600480360381019061018a9190610a50565b6102f4565b005b34801561019d57600080fd5b506101b860048036038101906101b39190610a01565b610705565b005b600060647f000000000000000000000000000000000000000000000000000000000000000060646101eb9190610d6c565b600260008581526020019081526020016000206003015461020c9190610df3565b6102169190610dc2565b9050919050565b7f000000000000000000000000000000000000000000000000000000000000000081565b60015481565b7f000000000000000000000000000000000000000000000000000000000000000081565b60026020528060005260406000206000915090508060000154908060010160009054906101000a900473ffffffffffffffffffffffffffffffffffffffff16908060020154908060030154908060040160009054906101000a900473ffffffffffffffffffffffffffffffffffffffff16908060040160149054906101000a900460ff16905086565b6002600054141561033a576040517f08c379a000000000000000000000000000000000000000000000000000000000815260040161033190610c88565b60405180910390fd5b6002600081905550600061034d826101ba565b9050600060026000848152602001908152602001600020905060015483108015610378575060008310155b6103b7576040517f08c379a00000000000000000000000000000000000000000000000000000000081526004016103ae90610be8565b60405180910390fd5b600082116103fa576040517f08c379a00000000000000000000000000000000000000000000000000000000081526004016103f190610c48565b60405180910390fd5b8134101561043d576040517f08c379a000000000000000000000000000000000000000000000000000000000815260040161043490610c08565b60405180910390fd5b8060040160149054906101000a900460ff161561048f576040517f08c379a000000000000000000000000000000000000000000000000000000000815260040161048690610c28565b60405180910390fd5b8060040160009054906101000a900473ffffffffffffffffffffffffffffffffffffffff1673ffffffffffffffffffffffffffffffffffffffff166108fc82600301549081150290604051600060405180830381858888f193505050501580156104fd573d6000803e3d6000fd5b507f000000000000000000000000000000000000000000000000000000000000000073ffffffffffffffffffffffffffffffffffffffff166108fc8260030154846105489190610e4d565b9081150290604051600060405180830381858888f19350505050158015610573573d6000803e3d6000fd5b5060018160040160146101000a81548160ff0219169083151502179055508060010160009054906101000a900473ffffffffffffffffffffffffffffffffffffffff1673ffffffffffffffffffffffffffffffffffffffff166323b872dd303384600201546040518463ffffffff1660e01b81526004016105f693929190610bb1565b600060405180830381600087803b15801561061057600080fd5b505af1158015610624573d6000803e3d6000fd5b505050503373ffffffffffffffffffffffffffffffffffffffff168160040160009054906101000a900473ffffffffffffffffffffffffffffffffffffffff1673ffffffffffffffffffffffffffffffffffffffff168260010160009054906101000a900473ffffffffffffffffffffffffffffffffffffffff1673ffffffffffffffffffffffffffffffffffffffff167f8b4c9c8a607d67b321582dd8461041b1dc2ceeca70c8b7f37f8e02095cf2e76d86856002015486600301546040516106f093929190610d24565b60405180910390a45050600160008190555050565b6002600054141561074b576040517f08c379a000000000000000000000000000000000000000000000000000000000815260040161074290610c88565b60405180910390fd5b600260008190555060008111610796576040517f08c379a000000000000000000000000000000000000000000000000000000000815260040161078d90610c68565b60405180910390fd5b600160008154809291906107a990610f11565b91905055508273ffffffffffffffffffffffffffffffffffffffff166323b872dd3330856040518463ffffffff1660e01b81526004016107eb93929190610bb1565b600060405180830381600087803b15801561080557600080fd5b505af1158015610819573d6000803e3d6000fd5b505050506040518060c0016040528060015481526020018473ffffffffffffffffffffffffffffffffffffffff1681526020018381526020018281526020013373ffffffffffffffffffffffffffffffffffffffff168152602001600015158152506002600060015481526020019081526020016000206000820151816000015560208201518160010160006101000a81548173ffffffffffffffffffffffffffffffffffffffff021916908373ffffffffffffffffffffffffffffffffffffffff160217905550604082015181600201556060820151816003015560808201518160040160006101000a81548173ffffffffffffffffffffffffffffffffffffffff021916908373ffffffffffffffffffffffffffffffffffffffff16021790555060a08201518160040160146101000a81548160ff0219169083151502179055509050503373ffffffffffffffffffffffffffffffffffffffff168373ffffffffffffffffffffffffffffffffffffffff167f655a0cf9c8db81512be9a76dc1c5ae5380b8816ce6ad659cd61b715e2999d59a60015485856040516109c293929190610d24565b60405180910390a36001600081905550505050565b6000813590506109e6816110ae565b92915050565b6000813590506109fb816110c5565b92915050565b600080600060608486031215610a1657600080fd5b6000610a24868287016109d7565b9350506020610a35868287016109ec565b9250506040610a46868287016109ec565b9150509250925092565b600060208284031215610a6257600080fd5b6000610a70848285016109ec565b91505092915050565b610a8281610e93565b82525050565b610a9181610e81565b82525050565b610aa081610ea5565b82525050565b610aaf81610eed565b82525050565b6000610ac2601083610d5b565b9150610acd82610fb8565b602082019050919050565b6000610ae5601283610d5b565b9150610af082610fe1565b602082019050919050565b6000610b08601483610d5b565b9150610b138261100a565b602082019050919050565b6000610b2b601983610d5b565b9150610b3682611033565b602082019050919050565b6000610b4e601883610d5b565b9150610b598261105c565b602082019050919050565b6000610b71601f83610d5b565b9150610b7c82611085565b602082019050919050565b610b9081610ee3565b82525050565b6000602082019050610bab6000830184610a79565b92915050565b6000606082019050610bc66000830186610a88565b610bd36020830185610a88565b610be06040830184610b87565b949350505050565b60006020820190508181036000830152610c0181610ab5565b9050919050565b60006020820190508181036000830152610c2181610ad8565b9050919050565b60006020820190508181036000830152610c4181610afb565b9050919050565b60006020820190508181036000830152610c6181610b1e565b9050919050565b60006020820190508181036000830152610c8181610b41565b9050919050565b60006020820190508181036000830152610ca181610b64565b9050919050565b6000602082019050610cbd6000830184610b87565b92915050565b600060c082019050610cd86000830189610b87565b610ce56020830188610aa6565b610cf26040830187610b87565b610cff6060830186610b87565b610d0c6080830185610a79565b610d1960a0830184610a97565b979650505050505050565b6000606082019050610d396000830186610b87565b610d466020830185610b87565b610d536040830184610b87565b949350505050565b600082825260208201905092915050565b6000610d7782610ee3565b9150610d8283610ee3565b9250827fffffffffffffffffffffffffffffffffffffffffffffffffffffffffffffffff03821115610db757610db6610f5a565b5b828201905092915050565b6000610dcd82610ee3565b9150610dd883610ee3565b925082610de857610de7610f89565b5b828204905092915050565b6000610dfe82610ee3565b9150610e0983610ee3565b9250817fffffffffffffffffffffffffffffffffffffffffffffffffffffffffffffffff0483118215151615610e4257610e41610f5a565b5b828202905092915050565b6000610e5882610ee3565b9150610e6383610ee3565b925082821015610e7657610e75610f5a565b5b828203905092915050565b6000610e8c82610ec3565b9050919050565b6000610e9e82610ec3565b9050919050565b60008115159050919050565b6000610ebc82610e81565b9050919050565b600073ffffffffffffffffffffffffffffffffffffffff82169050919050565b6000819050919050565b6000610ef882610eff565b9050919050565b6000610f0a82610ec3565b9050919050565b6000610f1c82610ee3565b91507fffffffffffffffffffffffffffffffffffffffffffffffffffffffffffffffff821415610f4f57610f4e610f5a565b5b600182019050919050565b7f4e487b7100000000000000000000000000000000000000000000000000000000600052601160045260246000fd5b7f4e487b7100000000000000000000000000000000000000000000000000000000600052601260045260246000fd5b7f57726f6e67204974656d20696e64657800000000000000000000000000000000600082015250565b7f4e6f7420656e6f7567682062616c616e63650000000000000000000000000000600082015250565b7f4974656d20697320616c726561647920736f6c64000000000000000000000000600082015250565b7f50726963652063616e206e6f74206265206e6567617469766500000000000000600082015250565b7f50726963652063616e206e6f74206265203c3d207a65726f0000000000000000600082015250565b7f5265656e7472616e637947756172643a207265656e7472616e742063616c6c00600082015250565b6110b781610eb1565b81146110c257600080fd5b50565b6110ce81610ee3565b81146110d957600080fd5b5056fea26469706673582212206e0ea77e8f237db30fe9fa50e30eeb2e00fbd418ff2fa7fdd20b90417228da4864736f6c63430008040033",
  "linkReferences": {},
  "deployedLinkReferences": {}
}