{
  "_format": "hh-sol-artifact-1",
  "contractName": "PaymentProcessor",
  "sourceName": "src/backend/contracts/PaymentProcessor.sol",
  "abi": [
    {
      "inputs": [
        {
          "internalType": "address",
          "name": "_adminAddress",
          "type": "address"
        },
        {
          "internalType": "address",
          "name": "_WETHAddress",
          "type": "address"
        }
      ],
      "stateMutability": "nonpayable",
      "type": "constructor"
    },
    {
      "anonymous": false,
      "inputs": [
        {
          "indexed": false,
          "internalType": "address",
          "name": "buyer",
          "type": "address"
        },
        {
          "indexed": false,
          "internalType": "uint256",
          "name": "amount",
          "type": "uint256"
        }
      ],
      "name": "PaymentDone",
      "type": "event"
    },
    {
      "inputs": [],
      "name": "adminAddress",
      "outputs": [
        {
          "internalType": "address",
          "name": "",
          "type": "address"
        }
      ],
      "stateMutability": "view",
      "type": "function"
    },
    {
      "inputs": [
        {
          "internalType": "uint256",
          "name": "_amount",
          "type": "uint256"
        }
      ],
      "name": "pay",
      "outputs": [],
      "stateMutability": "nonpayable",
      "type": "function"
    },
    {
      "inputs": [],
      "name": "weth",
      "outputs": [
        {
          "internalType": "contract IERC20",
          "name": "",
          "type": "address"
        }
      ],
      "stateMutability": "view",
      "type": "function"
    }
  ],
  "bytecode": "0x608060405234801561001057600080fd5b50604051610568380380610568833981810160405281019061003291906100cf565b816000806101000a81548173ffffffffffffffffffffffffffffffffffffffff021916908373ffffffffffffffffffffffffffffffffffffffff16021790555080600160006101000a81548173ffffffffffffffffffffffffffffffffffffffff021916908373ffffffffffffffffffffffffffffffffffffffff1602179055505050610154565b6000815190506100c98161013d565b92915050565b600080604083850312156100e257600080fd5b60006100f0858286016100ba565b9250506020610101858286016100ba565b9150509250929050565b60006101168261011d565b9050919050565b600073ffffffffffffffffffffffffffffffffffffffff82169050919050565b6101468161010b565b811461015157600080fd5b50565b610405806101636000396000f3fe608060405234801561001057600080fd5b50600436106100415760003560e01c80633fc8cef314610046578063c290d69114610064578063fc6f946814610080575b600080fd5b61004e61009e565b60405161005b919061031a565b60405180910390f35b61007e60048036038101906100799190610249565b6100c4565b005b6100886101d2565b604051610095919061029f565b60405180910390f35b600160009054906101000a900473ffffffffffffffffffffffffffffffffffffffff1681565b600160009054906101000a900473ffffffffffffffffffffffffffffffffffffffff1673ffffffffffffffffffffffffffffffffffffffff166323b872dd3360008054906101000a900473ffffffffffffffffffffffffffffffffffffffff16846040518463ffffffff1660e01b8152600401610143939291906102ba565b602060405180830381600087803b15801561015d57600080fd5b505af1158015610171573d6000803e3d6000fd5b505050506040513d601f19601f820116820180604052508101906101959190610220565b507f8155483aea3d6c4a03a026be01811ad28fb466812ed0753e3a85f95da46def1b33826040516101c79291906102f1565b60405180910390a150565b60008054906101000a900473ffffffffffffffffffffffffffffffffffffffff1681565b600081519050610205816103a1565b92915050565b60008135905061021a816103b8565b92915050565b60006020828403121561023257600080fd5b6000610240848285016101f6565b91505092915050565b60006020828403121561025b57600080fd5b60006102698482850161020b565b91505092915050565b61027b81610335565b82525050565b61028a8161037d565b82525050565b61029981610373565b82525050565b60006020820190506102b46000830184610272565b92915050565b60006060820190506102cf6000830186610272565b6102dc6020830185610272565b6102e96040830184610290565b949350505050565b60006040820190506103066000830185610272565b6103136020830184610290565b9392505050565b600060208201905061032f6000830184610281565b92915050565b600061034082610353565b9050919050565b60008115159050919050565b600073ffffffffffffffffffffffffffffffffffffffff82169050919050565b6000819050919050565b60006103888261038f565b9050919050565b600061039a82610353565b9050919050565b6103aa81610347565b81146103b557600080fd5b50565b6103c181610373565b81146103cc57600080fd5b5056fea2646970667358221220f60108909bb37454c2254fb0c572478198b55a5c4f5deaf6b4c6938bf7e44b1764736f6c63430008040033",
  "linkReferences": {},
  "deployedLinkReferences": {}
}